:020000040800F2
:1000000000000320190400086504000865040008C6
:10001000650400086504000865040008000000008D
:10002000000000000000000000000000650400085F
:10003000650400080000000065040008650400086D
:1000400065040008650400086504000865040008EC
:1000500065040008650400086504000865040008DC
:1000600065040008650400086504000865040008CC
:1000700065040008650400086504000865040008BC
:1000800065040008650400086504000865040008AC
:10009000650400086504000865040008650400089C
:1000A00065040008FD0300086504000865040008F5
:1000B000650400086504000865040008650400087C
:1000C000650400086504000865040008650400086C
:1000D000650400086504000865040008650400085C
:1000E000650400086504000865040008650400084C
:1000F000650400086504000865040008650400083C
:10010000650400086504000865040008650400082B
:10011000650400086504000865040008650400081B
:10012000650400086504000865040008650400080B
:1001300065040008650400086504000865040008FB
:1001400065040008650400086504000865040008EB
:1001500065040008650400086504000865040008DB
:1001600065040008650400086504000865040008CB
:10017000650400086504000865040008000000002C
:1001800065040008650400086504000865040008AB
:10019000650400086504000865040008650400089B
:0C01A00065040008650400086504000800
:1001AC0010B5054C237833B9044B13B10448AFF3A5
:1001BC0000800123237010BD00000020000000000F
:1001CC00B004000808B5034B1BB103490348AFF357
:1001DC00008008BD0000000004000020B0040008EE
:1001EC0008B500F009F800F025F800F049F800F027
:1001FC0085F800F091F8FAE70B4B1A6B42F0080205
:10020C001A630A4A116821F47F411160116841F4A4
:10021C00AA4111601A6B42F001021A63044A136876
:10022C0043F003031360704700380240000C024097
:10023C0000000240084A536C43F480735364074B2C
:10024C0000225A631A6942F002021A619A6842F05B
:10025C0001029A60704700BF003802400020014044
:10026C00064A936843F080439360044B1B6813F079
:10027C00020FFAD0014BD86C80B2704700200140BD
:10028C001B4A136B43F0010313631A4B196821F4D7
:10029C0040311960196821F440211960196841F442
:1002AC0000311960196841F400211960596A41F054
:1002BC0001015962596A41F010015962536C43F0C3
:1002CC00010353640C4B03229A609A6942F48072C6
:1002DC0042F001029A611A6A22F022021A625A6CE6
:1002EC0042F400425A641A6842F001021A607047E4
:1002FC0000380240000002400000014008B5FFF742
:10030C00AFFF07EE900AF8EE677A9FED020A87EED0
:10031C00800A08BD00F07F452F4B4FF480129A6184
:10032C004FF400129A614FF480029A614FF400026C
:10033C009A61DFED2A7AB4EEE70AF1EE10FA0FDBE0
:10034C00DFED277AB4EEE70AF1EE10FA08D81022A6
:10035C009A6120229A6140229A6180229A617047A8
:10036C00DFED207AB4EEE70AF1EE10FA0EDBDFEDEA
:10037C001B7AB4EEE70AF1EE10FA07D5164B1022F1
:10038C009A6120229A6140229A617047DFED167AB9
:10039C00B4EEE70AF1EE10FA0CDBDFED127AB4EEF4
:1003AC00E70AF1EE10FA05D50B4B10229A612022C8
:1003BC009A617047DFED0D7AB4EEE70AF1EE10FAB0
:1003CC0009DBDFED097AB4EEE70AF1EE10FA02D59B
:1003DC00014B10229A617047000C0240CDCC4C3F6F
:1003EC009A99593F9A99193FCDCCCC3ECDCC4C3EE5
:1003FC00054B1B6913F0010F04D0034A136923F05A
:10040C0001031361704700BF00000140DFF830D0DA
:10041C000C480D490D4A002302E0D458C450043353
:10042C00C4188C42F9D30A4A0A4C002301E0136029
:10043C000432A242FBD300F011F8FFF7D1FE704753
:10044C00000003200000002000000020D004000861
:10045C00000000201C000020FEE7000070B50D4DD0
:10046C000D4C641BA4100026A64209D10B4D0C4C5C
:10047C0000F018F8641BA4100026A64205D170BD2C
:10048C0055F8043B98470136EEE755F8043B98477E
:10049C000136F2E7C8040008C8040008C8040008C4
:1004AC00CC040008F8B500BFF8BC08BC9E467047E9
:0C04BC00F8B500BFF8BC08BC9E467047B5
:0404C800D101000856
:0404CC00AD01000876
:0400000508000419D2
:00000001FF
