:020000040800F2
:10000000000003209D030008E9030008E90300083D
:10001000E9030008E9030008E90300080000000004
:10002000000000000000000000000000E9030008DC
:10003000E903000800000000E9030008E9030008E4
:10004000E9030008E9030008E9030008E9030008E0
:10005000E9030008E9030008E9030008E9030008D0
:10006000E9030008E9030008E9030008E9030008C0
:10007000E9030008E9030008E9030008E9030008B0
:10008000E9030008E9030008E9030008E9030008A0
:10009000E9030008E9030008E9030008E903000890
:1000A000E9030008E9030008E9030008E903000880
:1000B000E9030008E9030008E9030008E903000870
:1000C000E9030008E9030008E9030008E903000860
:1000D000E9030008E9030008E9030008E903000850
:1000E000E9030008E9030008E9030008E903000840
:1000F000E9030008E9030008E9030008E903000830
:10010000E9030008E9030008E9030008E90300081F
:10011000E9030008E9030008E9030008E90300080F
:10012000E9030008E9030008E9030008E9030008FF
:10013000E9030008E9030008E9030008E9030008EF
:10014000E9030008E9030008E9030008E9030008DF
:10015000E9030008E9030008E9030008E9030008CF
:10016000E9030008E9030008E9030008E9030008BF
:10017000E9030008E9030008E903000800000000A3
:10018000E9030008E9030008E9030008E90300089F
:10019000E9030008E9030008E9030008E90300088F
:0C01A000E9030008E9030008E903000877
:1001AC0010B5054C237833B9044B13B10448AFF3A5
:1001BC0000800123237010BD00000020000000000F
:1001CC003404000808B5034B1BB103490348AFF3D3
:1001DC00008008BD0000000004000020340400086A
:1001EC0010B584B000F082F83A4B93E8070004ABEA
:1001FC0003E9070000242EE0374B1A68374B9A426C
:10020C0005D9374A936943F00103936134E0324BCB
:10021C001A68344B9A4205D9314A936943F08003EA
:10022C00936129E02C4B1A682E4B9A4224D82C4A05
:10023C00936943F4804393611EE00024264B1C60B9
:10024C00274A936943F0814343F48033936104213B
:10025C00234800F07FF80821214800F07BF870B1AA
:10026C001D4B1A68204B9A42C6D91D4A936943F01C
:10027C00814343F480339361174B00221A600221AF
:10028C00174800F067F828B10134042CD5D0124B74
:10029C0000221A60032CDAD801A353F824F000BF13
:1002AC004D020008BD020008C9020008D502000872
:1002BC000B4A936943F001039361C8E7084A9369B9
:1002CC0043F080039361C2E7054A936943F480438A
:1002DC009361BCE74C0400081C000020A0252600FC
:1002EC000004024040420F00404B4C00164A136B76
:1002FC0043F007031363154B002119605960D96053
:10030C00A2F54052116018681149014319605968EF
:10031C0021F4814121F001015960996941F0814139
:10032C0041F480319961196821F0FC011960D96898
:10033C0041F05401D960136823F440031360D3686F
:10034C0043F48003D360704700380240000402403D
:10035C00014000108446006908400BD00020704713
:10036C00013341F287329342FADDDCF810300B4254
:10037C0006D070470023F4E7044A13680133136076
:10038C00DCF810300B42F7D00120F2E71C00002003
:10039C00DFF830D00C480D490D4A002302E0D45848
:1003AC00C4500433C4188C42F9D30A4A0A4C0023B3
:1003BC0001E013600432A242FBD300F011F8FFF706
:1003CC000FFF7047000003200000002000000020F9
:1003DC00600400080000002020000020FEE7000060
:1003EC0070B50D4D0D4C641BA4100026A64209D10E
:1003FC000B4D0C4C00F018F8641BA4100026A64200
:10040C0005D170BD55F8043B98470136EEE755F819
:10041C00043B98470136F2E75804000858040008DA
:10042C00580400085C040008F8B500BFF8BC08BC10
:10043C009E467047F8B500BFF8BC08BC9E46704796
:0C044C00E80300008813000010270000E7
:04045800D1010008C6
:04045C00AD010008E6
:040000050800039D4F
:00000001FF
