:020000040800F2
:100000000000032035070008810700088107000869
:100010008107000881070008810700080000000030
:100020000000000000000000000000008107000840
:10003000810700080000000081070008D5060008BD
:100040008107000881070008810700088107000870
:100050008107000881070008810700088107000860
:100060008107000881070008810700088107000850
:100070008107000881070008810700088107000840
:100080008107000881070008810700088107000830
:10009000810700088107000881070008F9050008AA
:1000A0008107000881070008810700088107000810
:1000B0008107000881070008810700088107000800
:1000C00081070008810700088107000881070008F0
:1000D00081070008810700088107000881070008E0
:1000E00081070008810700088107000881070008D0
:1000F00081070008810700088107000881070008C0
:1001000081070008810700088107000881070008AF
:10011000810700088107000881070008810700089F
:10012000810700088107000881070008810700088F
:10013000810700088107000881070008810700087F
:10014000810700088107000881070008810700086F
:10015000810700088107000881070008810700085F
:10016000810700088107000881070008810700084F
:1001700081070008810700088107000800000000CF
:10018000810700088107000881070008810700082F
:10019000810700088107000881070008810700081F
:0C01A000810700088107000881070008A3
:1001AC0010B5054C237833B9044B13B10448AFF3A5
:1001BC0000800123237010BD1C00002000000000F3
:1001CC00CC07000808B5034B1BB103490348AFF338
:1001DC00008008BD0000000020000020CC070008B3
:1001EC0008B500F083F900F0E7F800F01DF900F015
:1001FC005DF94FF0000EF4467046534B1B7823B359
:10020C000130524A82FB00320244C317C3EBA203F3
:10021C00C3EBC303C31AD8B24B4B00221A704C4B1E
:10022C001B78002B46D04B4B1B785BB2B3F1FF3FD6
:10023C0020D0484B1B785BB2042B37DC454A137833
:10024C005BB201335BB2137017E0434B1B78002B8E
:10025C00E5D00EF1010E414B83FB0E23A3EBEE73A5
:10026C0003EB4303AEEB03035FFA83FE3A4B00222E
:10027C001A70D4E7374B00221A704FF0000C344B35
:10028C0083F800C0E646334B1B7813F0800F0BD17C
:10029C00304B1B785BB20CEB4C027244304951F87A
:1002AC002210304A42F82310002319E0294BFF2278
:1002BC001A70E2E72C4B1B78002BE4D00CF1010CEC
:1002CC00264B83FB0C23A3EBEC7303EB4303ACEB4C
:1002DC0003035FFA83FC244B00221A70D3E701332B
:1002EC00052B08DC1B4A127852B29A42F7D11F4AEE
:1002FC000121D154F3E700230EE01D4AD15C012209
:10030C008A401C498A6106E0194AD15C10310122ED
:10031C008A4018498A610133052B3FF76EAF0D4AAD
:10032C00127852B29A42E8D00028EDD09842EBDD18
:10033C000E4AD25C002AE7D00D4AD15C01228A40D9
:10034C000C498A61E7E700BF5800002093244992CA
:10035C00560000200000002059000020565555552D
:10036C00EC0700080400002057000020500000207B
:10037C00E40700080004024000B500F00700C0F1DB
:10038C00070CBCF1040F28BF4FF0040C031D062B07
:10039C000FD9C31E4FF0FF3E0EFA0CF021EA0001FC
:1003AC0099400EFA03FE22EA0E0241EA02005DF8C1
:1003BC0004FB0023EEE70000184B1A6B42F002021C
:1003CC001A631A6B42F004021A63A3F540531A68BD
:1003DC0022F4402242F400221A609A6842F440222D
:1003EC009A605A6A22F0F0025A620D4A10680D495E
:1003FC0001431160196821F470411960916941F051
:10040C008F4141F480319161516821F001015160BB
:10041C00DA6842F4A042DA60704700BF003802404C
:10042C00000402400140151008B51C4A536C43F4FB
:10043C0080435364A2F58032D36843F40073D360D5
:10044C00174B196841F040011960996841F040015F
:10045C009960D96841F04001D960D16841F40051EC
:10046C00D1601A6842F080021A609A6842F08002E9
:10047C009A60DA6842F08002DA600A4BD86800228F
:10048C001146C0F30220FFF777FF0001C0B2064B04
:10049C0083F817034FF400021A6008BD00380240BD
:1004AC00003C014000ED00E000E100E04FF0E023F3
:1004BC001A6922F001021A611A6942F002021A61E9
:1004CC001A6942F004021A61596901F07F41064A27
:1004DC000A435A619A6902F07F429A611A6942F0A2
:1004EC0001021A61704700BF1FBF02003D4A13682A
:1004FC0023F0F80343F08003136000239360394B1F
:10050C009B6813F00C0FFAD1364A136823F08073F2
:10051C001360344B1B6813F0007FFAD1314A136817
:10052C0023F4102313602F4B1B6813F4003FFAD1F4
:10053C002C4B1A6822F480221A601A6842F480321A
:10054C001A60284B1B6813F4003FFAD0254B1A682D
:10055C0042F400221A6000225A605A6842F4800267
:10056C005A605A6822F03F0242F008025A605A68F8
:10057C006FF38E1242F4B4425A605A6822F440323D
:10058C005A6019490A6822F00F0242F005020A600B
:10059C001A6842F080721A60124B1B6813F0007FCD
:1005AC00FAD0104B9A6822F0030242F002029A60D1
:1005BC009A6822F0F0029A609A6822F4604242F43F
:1005CC0000429A609A6822F4E05242F4A0529A6077
:1005DC009A6822F060529A609A6822F040429A60BF
:1005EC00704700BF00380240003C02402C4B5B6956
:1005FC0013F0400F0CD02A4B40225A6103F54C43A8
:10060C001B6913F0400F16D1264B1A68264B1A6043
:10061C00234B5B6913F0800F3CD0214B80225A6135
:10062C0003F54C431B6913F0800F1ED11D4B1A6848
:10063C001E4B1A6070471B4B1A681D4B1A601B68C7
:10064C00194A12689B1A322B05D9B3F5FA6F08D9DF
:10065C00184B01221A700023154A1360124A1360BA
:10066C00D6E7154B01221A70F5E70E4B1A68134B9F
:10067C001A601B680D4A12689B1A322B05D9B3F508
:10068C00FA6F08D90E4B01221A7000230B4A136023
:10069C00064A136070470B4B01221A70F5E700BF36
:1006AC00003C01405C0000206C0000206400002035
:1006BC006800002058000020590000206000002035
:1006CC005600002057000020124A136801331360B3
:1006DC00002300E00133052B1BDC0F4A127852B2C9
:1006EC009A42F7D00B4A12680C4951F82310521A4F
:1006FC000B4951F823108A42ECD30A49CA5CB2FA6E
:10070C0082F25209CA54034A1168044A42F823106F
:10071C00E0E770475C00002000000020380000205B
:10072C000400002050000020DFF830D00C480D49A8
:10073C000D4A002302E0D458C4500433C4188C4230
:10074C00F9D30A4A0A4C002301E013600432A24296
:10075C00FBD300F011F8FFF743FD704700000320B6
:10076C00000000201C000020180800081C000020BD
:10077C0070000020FEE7000070B50D4D0D4C641BA1
:10078C00A4100026A64209D10B4D0C4C00F018F811
:10079C00641BA4100026A64205D170BD55F8043B7D
:1007AC0098470136EEE755F8043B98470136F2E7D7
:1007BC0010080008100800081008000814080008A9
:1007CC00F8B500BFF8BC08BC9E467047F8B500BF32
:0807DC00F8BC08BC9E46704702
:1007E40008090A070E0000007C060000F40100005E
:1007F40065010000E2040000A001000026010000E1
:0C080400E80300003901000007010000BB
:04081000D10100080A
:04081400AD0100082A
:10081800FF0000007C0600007C0600007C0600004B
:0C0828007C0600007C0600007C0600003E
:0400000508000735B3
:00000001FF
