:020000040800F2
:1000000000000320210400086D0400086D040008AE
:100010006D0400086D0400086D0400080000000075
:100020000000000000000000000000006D04000857
:100030006D040008000000006D0400086D04000855
:100040006D0400086D0400086D0400086D040008CC
:100050006D0400086D0400086D0400086D040008BC
:100060006D0400086D0400086D0400086D040008AC
:100070006D0400086D0400086D0400086D0400089C
:100080006D0400086D0400086D0400086D0400088C
:100090006D0400086D0400086D0400086D0400087C
:1000A0006D0400086D0400086D0400086D0400086C
:1000B0006D0400086D0400086D0400086D0400085C
:1000C0006D0400086D0400086D0400086D0400084C
:1000D0006D0400086D0400086D0400086D0400083C
:1000E0006D0400086D0400086D0400086D0400082C
:1000F0006D0400086D0400086D0400086D0400081C
:100100006D0400086D0400086D0400086D0400080B
:100110006D0400086D0400086D0400086D040008FB
:100120006D0400086D0400086D0400086D040008EB
:100130006D0400086D0400086D0400086D040008DB
:100140006D0400086D0400086D0400086D040008CB
:100150006D0400086D0400086D0400086D040008BB
:100160006D0400086D0400086D0400086D040008AB
:100170006D0400086D0400086D0400080000000014
:100180006D0400086D0400086D0400086D0400088B
:100190006D0400086D0400086D0400086D0400087B
:0C01A0006D0400086D0400086D040008E8
:1001AC0010B5054C237833B9044B13B10448AFF3A5
:1001BC0000800123237010BD1800002000000000F7
:1001CC00B804000808B5034B1BB103490348AFF34F
:1001DC00008008BD000000001C000020B8040008CE
:1001EC0070B500F0BDF84FF0FF36354600244DE0F9
:1001FC00002454E000245FE04FF0FF357AE04F4BD1
:10020C0000221A60234604E04D4A0021D1540133E8
:10021C00DBB2022BF8D973E0494A0121D1540133E6
:10022C009C4218D99D42F7D0464A52F82310434AB3
:10023C001268454850F82300121A9142EFD84049F1
:10024C00CA5CB2FA82F25209CA543C4A11683E4A5C
:10025C0042F82310E3E73A4B1B78002B5CD03B4A67
:10026C00936943F001039361354B5B78002B59D0B4
:10027C00364A936943F080039361314B9B78002B92
:10028C0056D0324A936943F48043936102212F483C
:10029C0000F09AF818B10134E4B2042CA8D04FF451
:1002AC0000612B4800F090F848B12A4B1A682A4B91
:1002BC009A429FD8274B1B68264B00221A600421B8
:1002CC00224800F081F838B1013676B2022E00DDFA
:1002DC000026204B00221A6008211C4800F074F8FC
:1002EC0058B11C4B1A681C4B9A4203D901356DB29C
:1002FC00042D81D00026174B1E60002C3FF47FAFDD
:10030C00002D05DB154B53F826200E4B43F825200A
:10031C0000F078F8002383E70C4A936943F48033A8
:10032C009361A1E7094A936943F400039361A4E73D
:10033C00064A936943F080439361A7E73400002099
:10034C00440000200000002038000020000402407F
:10035C00000802404800002040420F000C00002022
:10036C00164A136B43F007031363154B00211960F6
:10037C005960D960A2F540521160186811490143C7
:10038C001960596821F4814121F001015960996982
:10039C0041F0814141F480319961196821F0FC01EF
:1003AC001960D96841F05401D960136823F44003F3
:1003BC001360D36843F48003D36070470038024065
:1003CC0000040240014000108446006908400BD034
:1003DC0000207047013341F287329342FADDDCF89A
:1003EC0010300B4206D070470023F4E7044A136820
:1003FC0001331360DCF810300B42F7D00120F2E728
:10040C0048000020024A136801331360704700BF94
:10041C0034000020DFF830D00C480D490D4A002381
:10042C0002E0D458C4500433C4188C42F9D30A4A9D
:10043C000A4C002301E013600432A242FBD300F00B
:10044C0011F8FFF7CDFE70470000032000000020DC
:10045C0018000020D8040008180000204C000020D0
:10046C00FEE7000070B50D4D0D4C641BA41000266A
:10047C00A64209D10B4D0C4C00F018F8641BA410CB
:10048C000026A64205D170BD55F8043B98470136AD
:10049C00EEE755F8043B98470136F2E7D004000824
:1004AC00D0040008D0040008D4040008F8B500BF3C
:1004BC00F8BC08BC9E467047F8B500BFF8BC08BC39
:0404CC009E46704791
:0404D000D10100084E
:0404D400AD0100086E
:1004D80050C3000050C3000050C3000050C30000C8
:0804E800400D030040420F002B
:0400000508000421CA
:00000001FF
