:020000040800F2
:10000000000003200D0200085902000859020008F0
:1000100059020008590200085902000800000000B7
:10002000000000000000000000000000590200086D
:100030005902000800000000590200085902000897
:100040005902000859020008590200085902000824
:100050005902000859020008590200085902000814
:100060005902000859020008590200085902000804
:1000700059020008590200085902000859020008F4
:1000800059020008590200085902000859020008E4
:1000900059020008590200085902000859020008D4
:1000A00059020008F101000859020008590200082D
:1000B00059020008590200085902000859020008B4
:1000C00059020008590200085902000859020008A4
:1000D0005902000859020008590200085902000894
:1000E0005902000859020008590200085902000884
:1000F0005902000859020008590200085902000874
:100100005902000859020008590200085902000863
:100110005902000859020008590200085902000853
:100120005902000859020008590200085902000843
:100130005902000859020008590200085902000833
:100140005902000859020008590200085902000823
:100150005902000859020008590200085902000813
:100160005902000859020008590200085902000803
:100170005902000859020008590200080000000056
:1001800059020008590200085902000859020008E3
:1001900059020008590200085902000859020008D3
:0C01A0005902000859020008590200082A
:1001AC0010B5054C237833B9044B13B10448AFF3A5
:1001BC0000800123237010BD00000020000000000F
:1001CC00A402000808B5034B1BB103490348AFF365
:1001DC00008008BD0000000004000020A4020008FC
:1001EC00FEE70000054B1B6913F0010F04D0034A16
:1001FC00136923F001031361704700BF0000014035
:10020C00DFF830D00C480D490D4A002302E0D458D9
:10021C00C4500433C4188C42F9D30A4A0A4C002344
:10022C0001E013600432A242FBD300F011F8FFF797
:10023C00D7FF7047000003200000002000000020C2
:10024C00C4020008000000201C000020FEE7000093
:10025C0070B50D4D0D4C641BA4100026A64209D19F
:10026C000B4D0C4C00F018F8641BA4100026A64291
:10027C0005D170BD55F8043B98470136EEE755F8AB
:10028C00043B98470136F2E7BC020008BC020008A8
:10029C00BC020008C0020008F8B500BFF8BC08BCDE
:1002AC009E467047F8B500BFF8BC08BC9E46704728
:0402BC00D101000864
:0402C000AD01000884
:040000050800020DE0
:00000001FF
