:020000040800F2
:1000000000000320510300089D0300089D03000821
:100010009D0300089D0300089D03000800000000E8
:100020000000000000000000000000009D03000828
:100030009D030008000000009D030008F90200086D
:100040009D0300089D0300089D0300089D03000810
:100050009D0300089D0300089D0300089D03000800
:100060009D0300089D0300089D0300089D030008F0
:100070009D0300089D0300089D0300089D030008E0
:100080009D0300089D0300089D0300089D030008D0
:100090009D0300089D0300089D030008D10200088D
:1000A0009D030008090300089D0300089D03000844
:1000B0009D0300089D0300089D0300089D030008A0
:1000C0009D0300089D0300089D0300089D03000890
:1000D0009D0300089D0300089D0300089D03000880
:1000E0009D0300089D0300089D0300089D03000870
:1000F0009D0300089D0300089D0300089D03000860
:100100009D0300089D0300089D0300089D0300084F
:100110009D0300089D0300089D0300089D0300083F
:100120009D0300089D0300089D0300089D0300082F
:100130009D0300089D0300089D0300089D0300081F
:100140009D0300089D0300089D0300089D0300080F
:100150009D0300089D0300089D0300089D030008FF
:100160009D0300089D0300089D0300089D030008EF
:100170009D0300089D0300089D0300080000000087
:100180009D0300089D0300089D0300089D030008CF
:100190009D0300089D0300089D0300089D030008BF
:0C01A0009D0300089D0300089D0300085B
:1001AC0010B5054C237833B9044B13B10448AFF3A5
:1001BC0000800123237010BD00000020000000000F
:1001CC00E803000808B5034B1BB103490348AFF320
:1001DC00008008BD0000000004000020E8030008B7
:1001EC0008B500F00DF8054B1A6842F480421A600D
:1001FC009A6942F080029A61FEE700BF0004024057
:10020C00254A136B43F003031363244B1A6842F41F
:10021C00A8621A605A6822F038025A609A6842F44E
:10022C007C629A60DA6822F47C62DA609A6942F441
:10023C0060129A611A6842F004021A605A6822F03D
:10024C0002025A609A6842F00C029A60DA6822F054
:10025C000C02DA609A6942F400329A61A3F5806369
:10026C001A6842F400321A605A6A22F00F0242F005
:10027C0001025A625A6822F480725A60DA6822F4D7
:10028C004032DA609A6942F080729A611A6842F0E0
:10029C0003021A60704700BF00380240000402409D
:1002AC00074A936843F08043936000E000BF044B1F
:1002BC001B6813F0020FF9D0014BD86C704700BFCC
:1002CC0000200140084B5B6913F0400F02D0064B35
:1002DC0040225A61044B5B6913F0800F02D0024B31
:1002EC0080225A61704700BF003C0140024A1368EB
:1002FC0001331360704700BF2000002008B50F4B7E
:10030C001B6913F0010F00D108BD0C4A136923F0CF
:10031C0001031361FFF7C4FF002304E0084A002126
:10032C00D1540133DBB2032BEED85A1CC2EB822220
:10033C008242F3D8024A0121D154F2E70000014075
:10034C001C000020DFF830D00C480D490D4A00236A
:10035C0002E0D458C4500433C4188C42F9D30A4A6E
:10036C000A4C002301E013600432A242FBD300F0DC
:10037C0011F8FFF735FF7047000003200000002044
:10038C0000000020080400080000002024000020C9
:10039C00FEE7000070B50D4D0D4C641BA41000263B
:1003AC00A64209D10B4D0C4C00F018F8641BA4109C
:1003BC000026A64205D170BD55F8043B984701367E
:1003CC00EEE755F8043B98470136F2E700040008C5
:1003DC00000400080004000804040008F8B500BF7D
:1003EC00F8BC08BC9E467047F8B500BFF8BC08BC0A
:0403FC009E46704762
:04040000D10100081E
:04040400AD0100083E
:04000005080003519B
:00000001FF
