:020000040800F2
:1000000000000320190300086503000865030008C9
:100010006503000865030008650300080000000090
:100020000000000000000000000000006503000860
:100030006503000800000000650300086503000870
:1000400065030008650300086503000865030008F0
:1000500065030008650300086503000865030008E0
:1000600065030008650300086503000865030008D0
:1000700065030008650300086503000865030008C0
:1000800065030008650300086503000865030008B0
:1000900065030008650300086503000865030008A0
:1000A0006503000865030008650300086503000890
:1000B0006503000865030008650300086503000880
:1000C0006503000865030008650300086503000870
:1000D0006503000865030008650300086503000860
:1000E0006503000865030008650300086503000850
:1000F0006503000865030008650300086503000840
:10010000650300086503000865030008650300082F
:10011000650300086503000865030008650300081F
:10012000650300086503000865030008650300080F
:1001300065030008650300086503000865030008FF
:1001400065030008650300086503000865030008EF
:1001500065030008650300086503000865030008DF
:1001600065030008650300086503000865030008CF
:10017000650300086503000865030008000000002F
:1001800065030008650300086503000865030008AF
:10019000650300086503000865030008650300089F
:0C01A00065030008650300086503000803
:1001AC0010B5054C237833B9044B13B10448AFF3A5
:1001BC0000800123237010BD00000020000000000F
:1001CC00B003000808B5034B1BB103490348AFF358
:1001DC00008008BD0000000004000020B0030008EF
:1001EC0008B500F041F80CE01A4B1A681A4B9A4209
:1001FC001AD91A4A936943F001039361154B0022F3
:10020C001A600821154800F063F80028F9D0114B4A
:10021C001A68134B9A42E7D9104A936943F0814309
:10022C0043F480339361E9E70A4B1A680D4B9A4209
:10023C0005D90A4A936943F080039361DEE7054BC5
:10024C001A68084B9A42D9D8044A936943F48043FC
:10025C009361D3E71C000020A02526000004024077
:10026C00404B4C0040420F00164A136B43F00703FF
:10027C001363154B002119605960D960A2F54052E7
:10028C0011601868114901431960596821F48141C2
:10029C0021F001015960996941F0814141F48031AB
:1002AC009961196821F0FC011960D96841F0540179
:1002BC00D960136823F440031360D36843F48003BC
:1002CC00D360704700380240000402400140001027
:1002DC008446006908400BD000207047013341F27E
:1002EC0087329342FADDDCF810300B4206D07047AF
:1002FC000023F4E7044A136801331360DCF8103070
:10030C000B42F7D00120F2E71C000020DFF830D0C0
:10031C000C480D490D4A002302E0D458C450043354
:10032C00C4188C42F9D30A4A0A4C002301E013602A
:10033C000432A242FBD300F011F8FFF751FF7047D3
:10034C00000003200000002000000020D003000863
:10035C000000002020000020FEE7000070B50D4DCD
:10036C000D4C641BA4100026A64209D10B4D0C4C5D
:10037C0000F018F8641BA4100026A64205D170BD2D
:10038C0055F8043B98470136EEE755F8043B98477F
:10039C000136F2E7C8030008C8030008C8030008C8
:1003AC00CC030008F8B500BFF8BC08BC9E467047EB
:0C03BC00F8B500BFF8BC08BC9E467047B6
:0403C800D101000857
:0403CC00AD01000877
:0400000508000319D3
:00000001FF
