:020000040800F2
:100000000000032039040008850400088504000866
:10001000850400088504000885040008000000002D
:10002000000000000000000000000000850400083F
:10003000850400080000000085040008850400080D
:10004000850400088504000885040008850400086C
:10005000850400088504000885040008850400085C
:10006000850400088504000885040008850400084C
:10007000850400088504000885040008850400083C
:10008000850400088504000885040008850400082C
:10009000850400088504000885040008850400081C
:1000A000850400088504000885040008850400080C
:1000B00085040008850400088504000885040008FC
:1000C00085040008850400088504000885040008EC
:1000D00085040008850400088504000885040008DC
:1000E00085040008850400088504000885040008CC
:1000F00085040008850400088504000885040008BC
:1001000085040008850400088504000885040008AB
:10011000850400088504000885040008850400089B
:10012000850400088504000885040008850400088B
:10013000850400088504000885040008850400087B
:10014000850400088504000885040008850400086B
:10015000850400088504000885040008850400085B
:10016000850400088504000885040008850400084B
:1001700085040008850400088504000800000000CC
:10018000850400088504000885040008850400082B
:10019000850400088504000885040008850400081B
:0C01A000850400088504000885040008A0
:1001AC0010B5054C237833B9044B13B10448AFF3A5
:1001BC0000800123237010BD1800002000000000F7
:1001CC00D004000808B5034B1BB103490348AFF337
:1001DC00008008BD000000001C000020D0040008B6
:1001EC00F8B500F0C9F800244FF0FF373E4625461D
:1001FC006BE0002572E00024254679E04FF0FF36D5
:10020C0095E0544B00221A602B4604E0524A002120
:10021C00D1540133DBB2022BF8D92C468DE04E4978
:10022C00012088540133DBB29D421FD91A19022ACE
:10023C001CDCE218D2B2B242F1D0484951F822008B
:10024C0044490968DFF818C15CF822C0A1EB0C0125
:10025C008842E7D84048815CB1FA81F14909815460
:10026C003C4908683E4941F82200DBE73A4B1B78D1
:10027C0033B12CB93B4A936943F00103936104E019
:10028C00384A936943F480339361334B5B780BB1F9
:10029C00012C0FD9334A936943F4000393612E4B1D
:1002AC009B786BB1022C0BD82E4A936943F4804394
:1002BC0093610AE02B4A936943F080039361EEE764
:1002CC00284A936943F0804393610221254800F04A
:1002DC0087F818B10135EDB2042D8AD04FF40061C6
:1002EC00214800F07DF830B10134E4B2042C82D006
:1002FC001E4B00221A6004211A4800F071F838B124
:10030C0001377FB2022F00DD0027184B00221A6044
:10031C000821144800F064F860B1144B1A68144BAF
:10032C009A4204D9013676B2042E3FF467AF002707
:10033C000E4B1F60002D3FF464AF002E05DB0D4B00
:10034C0053F82720054B43F8262000F067F80023CC
:10035C006AE700BF340000204400002000000020A9
:10036C003800002000040240000802404800002031
:10037C0040420F000C000020164A136B43F0070399
:10038C001363154B002119605960D960A2F54052D6
:10039C0011601868114901431960596821F48141B1
:1003AC0021F001015960996941F0814141F480319A
:1003BC009961196821F0FC011960D96841F0540168
:1003CC00D960136823F440031360D36843F48003AB
:1003DC00D360704700380240000402400140001016
:1003EC008446006908400BD000207047013341F26D
:1003FC0087329342FADDDCF810300B4206D070479E
:10040C000023F4E7044A136801331360DCF810305E
:10041C000B42F7D00120F2E748000020024A136893
:10042C0001331360704700BF34000020DFF830D078
:10043C000C480D490D4A002302E0D458C450043333
:10044C00C4188C42F9D30A4A0A4C002301E0136009
:10045C000432A242FBD300F011F8FFF7C1FE704743
:10046C00000003200000002018000020F004000809
:10047C00180000204C000020FEE7000070B50D4D68
:10048C000D4C641BA4100026A64209D10B4D0C4C3C
:10049C0000F018F8641BA4100026A64205D170BD0C
:1004AC0055F8043B98470136EEE755F8043B98475E
:1004BC000136F2E7E8040008E8040008E804000844
:1004CC00EC040008F8B500BFF8BC08BC9E467047A9
:0C04DC00F8B500BFF8BC08BC9E46704795
:0404E800D101000836
:0404EC00AD01000856
:1004F00050C3000050C3000050C3000050C30000B0
:08050000400D030040420F0012
:0400000508000439B2
:00000001FF
