:020000040800F2
:10000000000003204505000891050008910500083F
:100010009105000891050008910500080000000006
:100020000000000000000000000000009105000832
:10003000910500080000000091050008290500084E
:100040009105000891050008910500089105000838
:100050009105000891050008910500089105000828
:100060009105000891050008910500089105000818
:100070009105000891050008910500089105000808
:1000800091050008910500089105000891050008F8
:10009000910500089105000891050008E504000895
:1000A00091050008910500089105000891050008D8
:1000B00091050008910500089105000891050008C8
:1000C00091050008910500089105000891050008B8
:1000D00091050008910500089105000891050008A8
:1000E0009105000891050008910500089105000898
:1000F0009105000891050008910500089105000888
:100100009105000891050008910500089105000877
:100110009105000891050008910500089105000867
:100120009105000891050008910500089105000857
:100130009105000891050008910500089105000847
:100140009105000891050008910500089105000837
:100150009105000891050008910500089105000827
:100160009105000891050008910500089105000817
:1001700091050008910500089105000800000000A5
:1001800091050008910500089105000891050008F7
:1001900091050008910500089105000891050008E7
:0C01A00091050008910500089105000879
:1001AC0010B5054C237833B9044B13B10448AFF3A5
:1001BC0000800123237010BD00000020000000000F
:1001CC00DC05000808B5034B1BB103490348AFF32A
:1001DC00008008BD0000000004000020DC050008C1
:1001EC0008B500F0D9F800F07BF800F0A3F800F0A7
:1001FC0053F9002309E00023234A137023498A6929
:10020C0042F0814242F480328A611F4A1278AAB1CC
:10021C001F4A12681F490968521AB2F5FA6F0DD9B4
:10022C0001331D4A012111701C4A126912F0400F52
:10023C0001D0042BDFD0144A00211170032BE4D819
:10024C0001A252F823F000BF090200086502000861
:10025C0075020008850200080C498A6942F0814247
:10026C0042F001028A61D0E708498A6942F0804273
:10027C0042F081028A61C8E704498A6942F48142EA
:10028C0042F001028A61C0E7240000200004024011
:10029C00200000201C000020250000200008024047
:1002AC0000B500F00700C0F1070CBCF1040F28BF2B
:1002BC004FF0040C031D062B0FD9C31E4FF0FF3E4D
:1002CC000EFA0CF021EA000199400EFA03FE22EA24
:1002DC000E0241EA02005DF804FB0023EEE7000089
:1002EC00114B1A6B42F002021A631A6B42F00402B1
:1002FC001A63A3F5505319680C4A0A431A600C4947
:10030C000A6822F470420A609A6942F08F4242F401
:10031C0080329A615A6822F001025A60CB6843F429
:10032C00A043CB60704700BF00380240014015105D
:10033C000008024008B5144A536C43F480435364DC
:10034C00A2F58032D36843F40073D3600F4B1A6864
:10035C0042F040021A609A6842F040029A60DA68F1
:10036C0022F04002DA600A4BD86800221146C0F332
:10037C000220FFF795FF0001C0B2064B83F817036C
:10038C004FF400021A6008BD00380240003C0140E6
:10039C0000ED00E000E100E03D4A136823F0F803B3
:1003AC0043F08003136000239360394B9B6813F078
:1003BC000C0FFAD1364A136823F080731360344B58
:1003CC001B6813F0007FFAD1314A136823F4102311
:1003DC0013602F4B1B6813F4003FFAD12C4B1A6897
:1003EC0022F480221A601A6822F001021A601A683C
:1003FC0042F480321A60264B1B6813F4003FFAD08B
:10040C00234B1A6842F400221A6000225A605A6880
:10041C0042F480025A605A6842F004025A605A68E8
:10042C0042F4B4425A605A6842F480325A605A68B4
:10043C0042F070625A609A6842F002029A609A68BE
:10044C009A609A6842F4A0529A609A6842F4004208
:10045C009A609A6842F4C0029A609A6822F040420C
:10046C009A609A6842F0C0629A609A6842F0405270
:10047C009A6008490A6842F005020A601A6842F05C
:10048C0080721A60024B1B6813F0007FFAD0704721
:10049C0000380240003C02404FF0E0231A6922F081
:1004AC0001021A611A6942F002021A611A6942F0D9
:1004BC0004021A615A6902F07F4206490A435A61E2
:1004CC009A6902F07F420A439A611A6942F001026A
:1004DC001A6170471FBF02000B4B5B6913F0400F92
:1004EC0010D0094A536943F040035361074B1A6813
:1004FC00074B1A60074B1B6913F0400F02D1064BD8
:10050C0001221A70704700BF003C014020000020FF
:10051C001C0000200008024024000020044A13683C
:10052C0001331360034A136801331360704700BF33
:10053C002000002028000020DFF830D00C480D49A6
:10054C000D4A002302E0D458C4500433C4188C4222
:10055C00F9D30A4A0A4C002301E013600432A24288
:10056C00FBD300F011F8FFF73BFE704700000320AF
:10057C000000002000000020FC0500080000002006
:10058C002C000020FEE7000070B50D4D0D4C641BD7
:10059C00A4100026A64209D10B4D0C4C00F018F803
:1005AC00641BA4100026A64205D170BD55F8043B6F
:1005BC0098470136EEE755F8043B98470136F2E7C9
:1005CC00F4050008F4050008F4050008F805000817
:1005DC00F8B500BFF8BC08BC9E467047F8B500BF24
:0805EC00F8BC08BC9E467047F4
:0405F400D101000829
:0405F800AD01000849
:0400000508000545A5
:00000001FF
