:020000040800F2
:1000000000000320110500085D0500085D050008DB
:100010005D0500085D0500085D05000800000000A2
:100020000000000000000000000000005D05000866
:100030005D050008000000005D05000801050008DE
:100040005D0500085D0500085D0500085D05000808
:100050005D0500085D0500085D0500085D050008F8
:100060005D0500085D0500085D0500085D050008E8
:100070005D0500085D0500085D0500085D050008D8
:100080005D0500085D0500085D0500085D050008C8
:100090005D0500085D0500085D050008890400088D
:1000A0005D0500085D0500085D0500085D050008A8
:1000B0005D0500085D0500085D0500085D05000898
:1000C0005D0500085D0500085D0500085D05000888
:1000D0005D0500085D0500085D0500085D05000878
:1000E0005D0500085D0500085D0500085D05000868
:1000F0005D0500085D0500085D0500085D05000858
:100100005D0500085D0500085D0500085D05000847
:100110005D0500085D0500085D0500085D05000837
:100120005D0500085D0500085D0500085D05000827
:100130005D0500085D0500085D0500085D05000817
:100140005D0500085D0500085D0500085D05000807
:100150005D0500085D0500085D0500085D050008F7
:100160005D0500085D0500085D0500085D050008E7
:100170005D0500085D0500085D0500080000000041
:100180005D0500085D0500085D0500085D050008C7
:100190005D0500085D0500085D0500085D050008B7
:0C01A0005D0500085D0500085D05000815
:1001AC0010B5054C237833B9044B13B10448AFF3A5
:1001BC0000800123237010BD00000020000000000F
:1001CC00A805000808B5034B1BB103490348AFF35E
:1001DC00008008BD0000000004000020A8050008F5
:1001EC0008B500F0CBF800F03FF800F075F800F01F
:1001FC00A5F804E0094A936943F080039361084B26
:10020C001B78DBB2074A13701378002BF2D1034A28
:10021C00936943F400039361F1E700BF00040240CB
:10022C001C0000201D00002000B500F00700C0F1EC
:10023C00070CBCF1040F28BF4FF0040C031D062B58
:10024C000FD9C31E4FF0FF3E0EFA0CF021EA00014D
:10025C0099400EFA03FE22EA0E0241EA02005DF812
:10026C0004FB0023EEE70000184B1A6B42F002026D
:10027C001A631A6B42F004021A63A3F540531A680E
:10028C0022F4402242F400221A609A6842F440227E
:10029C009A605A6A22F0F0025A620D4A10680D49AF
:1002AC0001431160196821F470411960916941F0A2
:1002BC008F4141F480319161516821F0010151600D
:1002CC00DA6842F4A042DA60704700BF003802409E
:1002DC00000402400140151008B5144A536C43F455
:1002EC0080435364A2F58032D36843F40073D36027
:1002FC000F4B1A6842F040021A609A6842F04002B2
:10030C009A60DA6842F04002DA600A4BD868002240
:10031C001146C0F30220FFF787FF0001C0B2064B65
:10032C0083F817034FF400021A6008BD003802402E
:10033C00003C014000ED00E000E100E04FF0E02364
:10034C001A6922F001021A611A6942F002021A615A
:10035C001A6942F004021A61596901F07F41064A98
:10036C000A435A619A6902F07F429A611A6942F013
:10037C0001021A61704700BF1FBF02003D4A13689B
:10038C0023F0F80343F08003136000239360394B90
:10039C009B6813F00C0FFAD1364A136823F0807364
:1003AC001360344B1B6813F0007FFAD1314A136889
:1003BC0023F4102313602F4B1B6813F4003FFAD166
:1003CC002C4B1A6822F480221A601A6842F480328C
:1003DC001A60284B1B6813F4003FFAD0254B1A689F
:1003EC0042F400221A6000225A605A6842F48002D9
:1003FC005A605A6822F03F0242F008025A605A686A
:10040C006FF38E1242F4B4425A605A6822F44032AE
:10041C005A6019490A6822F00F0242F005020A607C
:10042C001A6842F080721A60124B1B6813F0007F3E
:10043C00FAD0104B9A6822F0030242F002029A6042
:10044C009A6822F0F0029A609A6822F4604242F4B0
:10045C0000429A609A6822F4E05242F4A0529A60E8
:10046C009A6822F060529A609A6822F040429A6030
:10047C00704700BF00380240003C0240184B5B69DB
:10048C0013F0400F2AD0164B40225A6103F54C430F
:10049C001B6913F0400F04D1124B1A68124B1A60EF
:1004AC007047104B1A68114B1A601B680E4A126881
:1004BC009B1A322B0DD90D4B1B680B4A12689B1AD9
:1004CC00B3F5FA6F05D90A4A1378B3FA83F35B09CB
:1004DC0013700023054A1360034A1360704700BF72
:1004EC00003C0140280000202400002020000020B7
:1004FC001C000020024A136801331360704700BFD0
:10050C0028000020DFF830D00C480D490D4A00239C
:10051C0002E0D458C4500433C4188C42F9D30A4AAC
:10052C000A4C002301E013600432A242FBD300F01A
:10053C0011F8FFF755FE7047000003200000002063
:10054C0000000020C8050008000000202C0000203E
:10055C00FEE7000070B50D4D0D4C641BA410002679
:10056C00A64209D10B4D0C4C00F018F8641BA410DA
:10057C000026A64205D170BD55F8043B98470136BC
:10058C00EEE755F8043B98470136F2E7C005000842
:10059C00C0050008C0050008C4050008F8B500BF78
:1005AC00F8BC08BC9E467047F8B500BFF8BC08BC48
:0405BC009E467047A0
:0405C000D10100085D
:0405C400AD0100087D
:0400000508000511D9
:00000001FF
