:020000040800F2
:10000000000003202D070008790700087907000881
:100010007907000879070008790700080000000048
:100020000000000000000000000000007907000848
:10003000790700080000000079070008CD060008D5
:100040007907000879070008790700087907000890
:100050007907000879070008790700087907000880
:100060007907000879070008790700087907000870
:100070007907000879070008790700087907000860
:100080007907000879070008790700087907000850
:10009000790700087907000879070008F1050008CA
:1000A0007907000879070008790700087907000830
:1000B0007907000879070008790700087907000820
:1000C0007907000879070008790700087907000810
:1000D0007907000879070008790700087907000800
:1000E00079070008790700087907000879070008F0
:1000F00079070008790700087907000879070008E0
:1001000079070008790700087907000879070008CF
:1001100079070008790700087907000879070008BF
:1001200079070008790700087907000879070008AF
:10013000790700087907000879070008790700089F
:10014000790700087907000879070008790700088F
:10015000790700087907000879070008790700087F
:10016000790700087907000879070008790700086F
:1001700079070008790700087907000800000000E7
:10018000790700087907000879070008790700084F
:10019000790700087907000879070008790700083F
:0C01A000790700087907000879070008BB
:1001AC0010B5054C237833B9044B13B10448AFF3A5
:1001BC0000800123237010BD1C00002000000000F3
:1001CC00C407000808B5034B1BB103490348AFF340
:1001DC00008008BD0000000020000020C4070008BB
:1001EC0008B500F07FF900F0E3F800F019F900F021
:1001FC0059F94FF0000EF4467046514B1B7823B35F
:10020C000130504A82FB00320244C317C3EBA203F5
:10021C00C3EBC303C31AD8B2494B00221A704A4B22
:10022C001B78002B43D0494B1B785BB2B3F1FF3FDB
:10023C0020D0464B1B785BB2042B34DC434A13783A
:10024C005BB201335BB2137017E0414B1B78002B90
:10025C00E5D00EF1010E3F4B83FB0E23A3EBEE73A7
:10026C0003EB4303AEEB03035FFA83FE384B002230
:10027C001A70D4E7354B00221A70334B00221A70D7
:10028C00324B1B7813F0800F0BD1304B1B785BB2C9
:10029C000CEB4C027244304951F822102F4A42F8B0
:1002AC002310002319E0294BFF221A70E5E72C4B91
:1002BC001B78002BE4D00CF1010C264B83FB0C2398
:1002CC00A3EBEC7303EB4303ACEB03035FFA83FC8C
:1002DC00234B00221A70D3E70133052B08DC1B4A91
:1002EC00127852B29A42F7D11E4A0121D154F3E747
:1002FC0000230EE01C4AD15C01228A401B498A6112
:10030C0006E0194AD15C103101228A4017498A61F2
:10031C000133052B3FF771AF0C4A127852B29A4257
:10032C00E8D00028EDD09842EBDD0E4AD25C002AD2
:10033C00E7D00D4AD15C01228A400C498A61E7E77B
:10034C005800002093244992560000200000002001
:10035C005900002056555555E407000804000020AC
:10036C005700002050000020DC0700080004024069
:10037C0000B500F00700C0F1070CBCF1040F28BF5A
:10038C004FF0040C031D062B0FD9C31E4FF0FF3E7C
:10039C000EFA0CF021EA000199400EFA03FE22EA53
:1003AC000E0241EA02005DF804FB0023EEE70000B8
:1003BC00184B1A6B42F002021A631A6B42F00402D9
:1003CC001A63A3F540531A6822F4402242F4002227
:1003DC001A609A6842F440229A605A6A22F0F0023B
:1003EC005A620D4A10680D4901431160196821F4D5
:1003FC0070411960916941F08F4141F480319161F4
:10040C00516821F001015160DA6842F4A042DA60CF
:10041C00704700BF00380240000402400140151034
:10042C0008B51C4A536C43F480435364A2F58032E4
:10043C00D36843F40073D360174B196841F0400143
:10044C001960996841F040019960D96841F0400108
:10045C00D960D16841F40051D1601A6842F0800231
:10046C001A609A6842F080029A60DA6842F0800260
:10047C00DA600A4BD86800221146C0F30220FFF75D
:10048C0077FF0001C0B2064B83F817034FF400024C
:10049C001A6008BD00380240003C014000ED00E04D
:1004AC0000E100E04FF0E0231A6922F001021A612A
:1004BC001A6942F002021A611A6942F004021A61C6
:1004CC00596901F07F41064A0A435A619A6902F060
:1004DC007F429A611A6942F001021A61704700BFAB
:1004EC001FBF02003D4A136823F0F80343F080035A
:1004FC00136000239360394B9B6813F00C0FFAD1F7
:10050C00364A136823F080731360344B1B6813F066
:10051C00007FFAD1314A136823F4102313602F4B58
:10052C001B6813F4003FFAD12C4B1A6822F480227A
:10053C001A601A6842F480321A60284B1B6813F454
:10054C00003FFAD0254B1A6842F400221A600022B0
:10055C005A605A6842F480025A605A6822F03F028C
:10056C0042F008025A605A686FF38E1242F4B44299
:10057C005A605A6822F440325A6019490A6822F0CB
:10058C000F0242F005020A601A6842F080721A608B
:10059C00124B1B6813F0007FFAD0104B9A6822F0B4
:1005AC00030242F002029A609A6822F0F0029A600A
:1005BC009A6822F4604242F400429A609A6822F4EB
:1005CC00E05242F4A0529A609A6822F060529A600B
:1005DC009A6822F040429A60704700BF003802408F
:1005EC00003C02402C4B5B6913F0400F0CD02A4BA3
:1005FC0040225A6103F54C431B6913F0400F16D18E
:10060C00264B1A68264B1A60234B5B6913F0800F3C
:10061C003CD0214B80225A6103F54C431B6913F0EB
:10062C00800F1ED11D4B1A681E4B1A6070471B4B56
:10063C001A681D4B1A601B68194A12689B1A322BD8
:10064C0005D9B3F5FA6F08D9184B01221A7000239B
:10065C00154A1360124A1360D6E7154B01221A7023
:10066C00F5E70E4B1A68134B1A601B680D4A12689B
:10067C009B1A322B05D9B3F5FA6F08D90E4B012210
:10068C001A7000230B4A1360064A136070470B4B19
:10069C0001221A70F5E700BF003C01405C0000200D
:1006AC006C0000206400002068000020580000202E
:1006BC005900002060000020560000205700002048
:1006CC00124A136801331360002300E00133052B39
:1006DC001BDC0F4A127852B29A42F7D00B4A1268BE
:1006EC000C4951F82310521A0B4951F823108A4225
:1006FC00ECD30A49CA5CB2FA82F25209CA54034AD0
:10070C001168044A42F82310E0E770475C000020AF
:10071C0000000020380000200400002050000020C1
:10072C00DFF830D00C480D490D4A002302E0D458B4
:10073C00C4500433C4188C42F9D30A4A0A4C00231F
:10074C0001E013600432A242FBD300F011F8FFF772
:10075C0047FD704700000320000000201C00002013
:10076C00100800081C00002070000020FEE70000AC
:10077C0070B50D4D0D4C641BA4100026A64209D17A
:10078C000B4D0C4C00F018F8641BA4100026A6426C
:10079C0005D170BD55F8043B98470136EEE755F886
:1007AC00043B98470136F2E70808000808080008DF
:1007BC00080800080C080008F8B500BFF8BC08BC15
:1007CC009E467047F8B500BFF8BC08BC9E46704703
:1007DC0008090A070E0000008306000071020000E1
:1007EC0081010000E8030000F40100003801000062
:0C07FC0071020000FA00000098000000EC
:04080800D101000812
:04080C00AD01000832
:10081000FF0000008306000083060000830600003E
:0C08200083060000830600008306000031
:040000050800072DBB
:00000001FF
