:020000040800F2
:1000000000000320A9030008F5030008F503000819
:10001000F5030008F5030008F503000800000000E0
:10002000000000000000000000000000F5030008D0
:10003000F503000800000000F5030008F5030008C0
:10004000F5030008F5030008F5030008F5030008B0
:10005000F5030008F5030008F5030008F5030008A0
:10006000F5030008F5030008F5030008F503000890
:10007000F5030008F5030008F5030008F503000880
:10008000F5030008F5030008F5030008F503000870
:10009000F5030008F5030008F5030008F503000860
:1000A000F5030008F5030008F5030008F503000850
:1000B000F5030008F5030008F5030008F503000840
:1000C000F5030008F5030008F5030008F503000830
:1000D000F5030008F5030008F5030008F503000820
:1000E000F5030008F5030008F5030008F503000810
:1000F000F5030008F5030008F5030008F503000800
:10010000F5030008F5030008F5030008F5030008EF
:10011000F5030008F5030008F5030008F5030008DF
:10012000F5030008F5030008F5030008F5030008CF
:10013000F5030008F5030008F5030008F5030008BF
:10014000F5030008F5030008F5030008F5030008AF
:10015000F5030008F5030008F5030008F50300089F
:10016000F5030008F5030008F5030008F50300088F
:10017000F5030008F5030008F5030008000000007F
:10018000F5030008F5030008F5030008F50300086F
:10019000F5030008F5030008F5030008F50300085F
:0C01A000F5030008F5030008F503000853
:1001AC0010B5054C237833B9044B13B10448AFF3A5
:1001BC0000800123237010BD00000020000000000F
:1001CC004004000808B5034B1BB103490348AFF3C7
:1001DC00008008BD0000000004000020400400085E
:1001EC0010B586B000F066F82C4B93E80300049031
:1001FC00ADF814100023ADF80C308DF80E30ADF8BE
:10020C000430ADF80630ADF8083030E003F11802D8
:10021C006A44002102F80C1C0133DBB2022BF5D925
:10022C0037E00023FAE71E4B1A681E4B9A4203D99B
:10023C0001238DF80D302CE0194B1A68194B9A429A
:10024C0027D801238DF80E3023E004F118030DEBB1
:10025C00030106AB03EB4403224611F80C1C33F8E4
:10026C00140C00F079F80134E4B2022CEDD9082119
:10027C000D4800F053F878B1094B1A680B4B9A42B1
:10028C00CFD8074B1A680A4B9A42CCD901238DF868
:10029C000C30034B00221A600024E6E758040008D7
:1002AC001C00002040420F0000040240404B4C0058
:1002BC00A0252600164A136B43F007031363154B56
:1002CC00002119605960D960A2F54052116018687C
:1002DC00114901431960596821F4814121F0010150
:1002EC005960996941F0814141F4803199611968F3
:1002FC0021F0FC011960D96841F05401D9601368F0
:10030C0023F440031360D36843F48003D360704735
:10031C00003802400004024001400010844600698D
:10032C0008400BD000207047013341F287329342D2
:10033C00FADDDCF810300B4206D070470023F4E7EE
:10034C00044A136801331360DCF810300B42F7D009
:10035C000120F2E71C000020A9B1C2EBC20201236C
:10036C0093400D498B61002300E001339842FCD887
:10037C00103201239340084A9361002300E00133BB
:10038C009842FCD87047C2EBC20210320123934052
:10039C00014A9361704700BF00040240DFF830D07F
:1003AC000C480D490D4A002302E0D458C4500433C4
:1003BC00C4188C42F9D30A4A0A4C002301E013609A
:1003CC000432A242FBD300F011F8FFF709FF70478B
:1003DC00000003200000002000000020680400083A
:1003EC000000002020000020FEE7000070B50D4D3D
:1003FC000D4C641BA4100026A64209D10B4D0C4CCD
:10040C0000F018F8641BA4100026A64205D170BD9C
:10041C0055F8043B98470136EEE755F8043B9847EE
:10042C000136F2E76004000860040008600400086C
:10043C0064040008F8B500BFF8BC08BC9E467047C1
:0C044C00F8B500BFF8BC08BC9E46704725
:08045800A08620A14042000033
:04046000D1010008BE
:04046400AD010008DE
:04000005080003A943
:00000001FF
