:020000040800F2
:1000000000000320D5070008210800082108000887
:10001000210800082108000821080008000000004D
:10002000000000000000000000000000210800089F
:1000300021080008000000002108000859070008F6
:1000400021080008210800082108000821080008EC
:1000500021080008210800082108000821080008DC
:1000600021080008210800082108000821080008CC
:1000700021080008210800082108000821080008BC
:1000800021080008210800082108000821080008AC
:100090002108000821080008210800087D06000842
:1000A000210800082108000821080008210800088C
:1000B000210800082108000821080008210800087C
:1000C000210800082108000821080008210800086C
:1000D000210800082108000821080008210800085C
:1000E000210800082108000821080008210800084C
:1000F000210800082108000821080008210800083C
:10010000210800082108000821080008210800082B
:10011000210800082108000821080008210800081B
:10012000210800082108000821080008210800080B
:1001300021080008210800082108000821080008FB
:1001400021080008210800082108000821080008EB
:1001500021080008210800082108000821080008DB
:1001600021080008210800082108000821080008CB
:1001700021080008210800082108000800000000EC
:1001800021080008210800082108000821080008AB
:10019000210800082108000821080008210800089B
:0C01A000210800082108000821080008C0
:1001AC0010B5054C237833B9044B13B10448AFF3A5
:1001BC0000800123237010BD1C00002000000000F3
:1001CC006C08000808B5034B1BB103490348AFF397
:1001DC00008008BD00000000200000206C08000812
:1001EC0008B500F0C5F900F029F900F05FF900F04E
:1001FC009FF94FF0000C60466D4B1B78002B2BD0F9
:10020C006C490A7801326C4B83FB02E313449B105C
:10021C00C3EBC303D31ADBB20B70654B00221A700D
:10022C00664A13889BB201339BB21380644B1B78D4
:10023C00002B67D0634B1B785BB2B3F1FF3F2AD026
:10024C00604B1B785BB2042B58DC5E4A13785BB2B4
:10025C0001335BB2137021E05B4B1B78002BE5D0B4
:10026C000CF1010C594B83FB0C23A3EBEC7303EB4C
:10027C004303ACEB03035FFA83FC534B00221A706D
:10028C00534B1A68534B1A60534A13889BB2013371
:10029C009BB21380CAE74B4B00221A700020484BCC
:1002AC0018704B4B1A684B4B1A604C4A13889BB214
:1002BC0001339BB213808446454B1B68454A126838
:1002CC009B1A41F28832934205D93E4BFF221A7099
:1002DC004FF0000C60463B4B1B7813F0800F0BD19A
:1002EC00384B1B785BB200EB400262443C4951F83E
:1002FC0022103C4A42F82310002320E0314BFF220D
:10030C001A70CBE7384B1B78002BD5D001302F4B14
:10031C0083FB0023A3EBE07303EB4303C31AD8B2B4
:10032C00314B00221A702A4B1A682A4B1A602F4A3A
:10033C0013889BB201339BB21380BDE70133052BAD
:10034C0008DC204A127852B29A42F7D1284A01218D
:10035C00D154F3E700230EE0264AD15C01228A40F7
:10036C0025498A6106E0234AD15C103101228A407A
:10037C0021498A610133052B3FF73EAF114A1278B0
:10038C0052B29A42E8D00B4A1278002AEBD0094AB2
:10039C001278D2B29A42E6DD154AD25C002AE2D03B
:1003AC00144AD15C01228A4013498A61E2E700BFFA
:1003BC00680000203800002093244992400000205F
:1003CC00660000200000002069000020565555559D
:1003DC006C000020440000203C0000203E00002067
:1003EC008C08000804000020670000203A00002060
:1003FC0060000020840800080004024000B500F0F2
:10040C000700C0F1070CBCF1040F28BF4FF0040C1F
:10041C00031D062B0FD9C31E4FF0FF3E0EFA0CF036
:10042C0021EA000199400EFA03FE22EA0E0241EA8B
:10043C0002005DF804FB0023EEE70000184B1A6B7A
:10044C0042F002021A631A6B42F004021A63A3F51B
:10045C0040531A6822F4402242F400221A609A682F
:10046C0042F440229A605A6A22F0F0025A620D4A13
:10047C0010680D4901431160196821F4704119602D
:10048C00916941F08F4141F480319161516821F0C3
:10049C0001015160DA6842F4A042DA60704700BF93
:1004AC0000380240000402400140151008B51C4AF7
:1004BC00536C43F480435364A2F58032D36843F405
:1004CC000073D360174B196841F0400119609968AB
:1004DC0041F040019960D96841F04001D960D16880
:1004EC0041F40051D1601A6842F080021A609A6897
:1004FC0042F080029A60DA6842F08002DA600A4BBD
:10050C00D86800221146C0F30220FFF777FF0001E4
:10051C00C0B2064B83F817034FF400021A6008BDF3
:10052C0000380240003C014000ED00E000E100E03A
:10053C004FF0E0231A6922F001021A611A6942F0A5
:10054C0002021A611A6942F004021A61596901F037
:10055C007F41064A0A435A619A6902F07F429A61C6
:10056C001A6942F001021A61704700BF1FBF0200F6
:10057C003D4A136823F0F80343F080031360002313
:10058C009360394B9B6813F00C0FFAD1364A136801
:10059C0023F080731360344B1B6813F0007FFAD187
:1005AC00314A136823F4102313602F4B1B6813F488
:1005BC00003FFAD12C4B1A6822F480221A601A6878
:1005CC0042F480321A60284B1B6813F4003FFAD0B7
:1005DC00254B1A6842F400221A6000225A605A68AD
:1005EC0042F480025A605A6822F03F0242F008023C
:1005FC005A605A686FF38E1242F4B4425A605A68C9
:10060C0022F440325A6019490A6822F00F0242F073
:10061C0005020A601A6842F080721A60124B1B685D
:10062C0013F0007FFAD0104B9A6822F0030242F0CC
:10063C0002029A609A6822F0F0029A609A6822F498
:10064C00604242F400429A609A6822F4E05242F40A
:10065C00A0529A609A6822F060529A609A6822F0CE
:10066C0040429A60704700BF00380240003C024094
:10067C002C4B5B6913F0400F0CD02A4B40225A6173
:10068C0003F54C431B6913F0400F16D1264B1A6827
:10069C00264B1A60234B5B6913F0800F3CD0214B27
:1006AC0080225A6103F54C431B6913F0800F1ED155
:1006BC001D4B1A681E4B1A6070471B4B1A681D4B5A
:1006CC001A601B68194A12689B1A322B05D9B3F5AC
:1006DC00FA6F08D9184B01221A700023154A1360BF
:1006EC00124A1360D6E7154B01221A70F5E70E4B30
:1006FC001A68134B1A601B680D4A12689B1A322B2E
:10070C0005D9B3F5FA6F08D90E4B01221A700023E4
:10071C000B4A1360064A136070470B4B01221A7088
:10072C00F5E700BF003C01406C0000207C0000207D
:10073C007400002078000020680000206900002070
:10074C00700000206600002067000020184A136823
:10075C000133136000231BE0154A1268154951F848
:10076C002310521A144951F823108A420FD3134AFA
:10077C001278D2B29A420ADD1149CA5CB2FA82F2FC
:10078C005209CA540A4A11680A4A42F82310013322
:10079C00052B0CDC0B4A127852B29A42F7D0074A5E
:1007AC001278002AD8D1064A0021D154EFE77047BD
:1007BC006C000020480000200400002038000020BD
:1007CC006000002000000020DFF830D00C480D49FC
:1007DC000D4A002302E0D458C4500433C4188C4290
:1007EC00F9D30A4A0A4C002301E013600432A242F6
:1007FC00FBD300F011F8FFF7F3FC70470000032067
:10080C00000000201C000020B80800081C0000207C
:10081C0080000020FEE7000070B50D4D0D4C641BF0
:10082C00A4100026A64209D10B4D0C4C00F018F870
:10083C00641BA4100026A64205D170BD55F8043BDC
:10084C0098470136EEE755F8043B98470136F2E736
:10085C00B0080008B0080008B0080008B408000888
:10086C00F8B500BFF8BC08BC9E467047F8B500BF91
:08087C00F8BC08BC9E46704761
:1008840008090A070E0000007C060000F4010000BD
:1008940065010000E2040000A00100002601000040
:0C08A400E803000039010000070100001B
:0408B000D10100086A
:0408B400AD0100088A
:1008B800FF0000007C0600007C0600007C060000AB
:0C08C8007C0600007C0600007C0600009E
:04000005080007D513
:00000001FF
