:020000040800F2
:100000000000032085070008D1070008D107000879
:10001000D1070008D1070008D10700080000000040
:10002000000000000000000000000000D1070008F0
:10003000D107000800000000D107000815070008DC
:10004000D1070008D1070008D1070008D107000830
:10005000D1070008D1070008D1070008D107000820
:10006000D1070008D1070008D1070008D107000810
:10007000D1070008D1070008D1070008D107000800
:10008000D1070008D1070008D1070008D1070008F0
:10009000D1070008D1070008D10700083906000879
:1000A000D1070008D1070008D1070008D1070008D0
:1000B000D1070008D1070008D1070008D1070008C0
:1000C000D1070008D1070008D1070008D1070008B0
:1000D000D1070008D1070008D1070008D1070008A0
:1000E000D1070008D1070008D1070008D107000890
:1000F000D1070008D1070008D1070008D107000880
:10010000D1070008D1070008D1070008D10700086F
:10011000D1070008D1070008D1070008D10700085F
:10012000D1070008D1070008D1070008D10700084F
:10013000D1070008D1070008D1070008D10700083F
:10014000D1070008D1070008D1070008D10700082F
:10015000D1070008D1070008D1070008D10700081F
:10016000D1070008D1070008D1070008D10700080F
:10017000D1070008D1070008D107000800000000DF
:10018000D1070008D1070008D1070008D1070008EF
:10019000D1070008D1070008D1070008D1070008DF
:0C01A000D1070008D1070008D1070008B3
:1001AC0010B5054C237833B9044B13B10448AFF3A5
:1001BC0000800123237010BD1C00002000000000F3
:1001CC001C08000808B5034B1BB103490348AFF3E7
:1001DC00008008BD00000000200000201C08000862
:1001EC0008B500F0A3F900F007F900F03DF900F0B4
:1001FC007DF94FF0000C6046604B1B782BB36049C7
:10020C000A7801325F4B83FB02E313449B10C3EB70
:10021C00C303D31ADBB20B70584B00221A705A4B23
:10022C001B78002B5BD0594B1B785BB2B3F1FF3FB3
:10023C0024D0564B1B785BB2042B4CDC534A1378FE
:10024C005BB201335BB213701BE0514B1B78002B7C
:10025C00E5D00CF1010C4F4B83FB0C23A3EBEC739F
:10026C0003EB4303ACEB03035FFA83FC484B002224
:10027C001A70494B1A68494B1A60D0E7434B00225D
:10028C001A700020404B1870434B1A68434B1A608D
:10029C008446414B1B68414A12689B1A41F28832D2
:1002AC00934205D9394BFF221A704FF0000C60466F
:1002BC00364B1B7813F0800F0BD1344B1B785BB291
:1002CC0000EB40026244364951F82210354A42F89C
:1002DC00231000231AE02D4BFF221A70D1E7324B6A
:1002EC001B78002BD5D001302A4B83FB0023A3EBCA
:1002FC00E07303EB4303C31AD8B22B4B00221A70E2
:10030C00254B1A68254B1A60C3E70133052B08DC13
:10031C001E4A127852B29A42F7D1244A0121D15482
:10032C00F3E700230EE0224AD15C01228A402149E6
:10033C008A6106E01E4AD15C103101228A401D49B7
:10034C008A610133052B3FF757AF104A127852B22E
:10035C009A42E8D00A4A1278002AEBD0084A12785E
:10036C00D2B29A42E6DD114AD25C002AE2D0104A9F
:10037C00D15C01228A400F498A61E2E760000020CB
:10038C0038000020932449925E00002000000020D9
:10039C006100002056555555640000203C0000209B
:1003AC003C080008040000205F00002058000020DA
:1003BC00340800080004024000B500F00700C0F14A
:1003CC00070CBCF1040F28BF4FF0040C031D062BC7
:1003DC000FD9C31E4FF0FF3E0EFA0CF021EA0001BC
:1003EC0099400EFA03FE22EA0E0241EA02005DF881
:1003FC0004FB0023EEE70000184B1A6B42F00202DC
:10040C001A631A6B42F004021A63A3F540531A687C
:10041C0022F4402242F400221A609A6842F44022EC
:10042C009A605A6A22F0F0025A620D4A10680D491D
:10043C0001431160196821F470411960916941F010
:10044C008F4141F480319161516821F0010151607B
:10045C00DA6842F4A042DA60704700BF003802400C
:10046C00000402400140151008B51C4A536C43F4BB
:10047C0080435364A2F58032D36843F40073D36095
:10048C00174B196841F040011960996841F040011F
:10049C009960D96841F04001D960D16841F40051AC
:1004AC00D1601A6842F080021A609A6842F08002A9
:1004BC009A60DA6842F08002DA600A4BD86800224F
:1004CC001146C0F30220FFF777FF0001C0B2064BC4
:1004DC0083F817034FF400021A6008BD003802407D
:1004EC00003C014000ED00E000E100E04FF0E023B3
:1004FC001A6922F001021A611A6942F002021A61A9
:10050C001A6942F004021A61596901F07F41064AE6
:10051C000A435A619A6902F07F429A611A6942F061
:10052C0001021A61704700BF1FBF02003D4A1368E9
:10053C0023F0F80343F08003136000239360394BDE
:10054C009B6813F00C0FFAD1364A136823F08073B2
:10055C001360344B1B6813F0007FFAD1314A1368D7
:10056C0023F4102313602F4B1B6813F4003FFAD1B4
:10057C002C4B1A6822F480221A601A6842F48032DA
:10058C001A60284B1B6813F4003FFAD0254B1A68ED
:10059C0042F400221A6000225A605A6842F4800227
:1005AC005A605A6822F03F0242F008025A605A68B8
:1005BC006FF38E1242F4B4425A605A6822F44032FD
:1005CC005A6019490A6822F00F0242F005020A60CB
:1005DC001A6842F080721A60124B1B6813F0007F8D
:1005EC00FAD0104B9A6822F0030242F002029A6091
:1005FC009A6822F0F0029A609A6822F4604242F4FF
:10060C0000429A609A6822F4E05242F4A0529A6036
:10061C009A6822F060529A609A6822F040429A607E
:10062C00704700BF00380240003C02402C4B5B6915
:10063C0013F0400F0CD02A4B40225A6103F54C4367
:10064C001B6913F0400F16D1264B1A68264B1A6003
:10065C00234B5B6913F0800F3CD0214B80225A61F5
:10066C0003F54C431B6913F0800F1ED11D4B1A6808
:10067C001E4B1A6070471B4B1A681D4B1A601B6887
:10068C00194A12689B1A322B05D9B3F5FA6F08D99F
:10069C00184B01221A700023154A1360124A13607A
:1006AC00D6E7154B01221A70F5E70E4B1A68134B5F
:1006BC001A601B680D4A12689B1A322B05D9B3F5C8
:1006CC00FA6F08D90E4B01221A7000230B4A1360E3
:1006DC00064A136070470B4B01221A70F5E700BFF6
:1006EC00003C014064000020740000206C000020DD
:1006FC0070000020600000206100002068000020D5
:10070C005E0000205F000020154A1368013313605F
:10071C00002300E00133052B20DC124A127852B280
:10072C009A42F7D00E4A12680F4951F82310521A08
:10073C000E4951F823108A42ECD30D4A1278D2B2EA
:10074C009A42E7DD0B49CA5CB2FA82F25209CA54EA
:10075C00034A1168044A42F82310DBE7704700BFD4
:10076C006400002000000020400000200400002055
:10077C003800002058000020DFF830D00C480D491C
:10078C000D4A002302E0D458C4500433C4188C42E0
:10079C00F9D30A4A0A4C002301E013600432A24246
:1007AC00FBD300F011F8FFF71BFD7047000003208E
:1007BC00000000201C000020680800081C0000201D
:1007CC0078000020FEE7000070B50D4D0D4C641B49
:1007DC00A4100026A64209D10B4D0C4C00F018F8C1
:1007EC00641BA4100026A64205D170BD55F8043B2D
:1007FC0098470136EEE755F8043B98470136F2E787
:10080C006008000860080008600800086408000818
:10081C00F8B500BFF8BC08BC9E467047F8B500BFE1
:08082C00F8BC08BC9E467047B1
:1008340008090A070E0000007C060000F40100000D
:1008440065010000E2040000A00100002601000090
:0C085400E803000039010000070100006B
:04086000D1010008BA
:04086400AD010008DA
:10086800FF0000007C0600007C0600007C060000FB
:0C0878007C0600007C0600007C060000EE
:040000050800078563
:00000001FF
