:020000040800F2
:1000000000000320E9040008350500083505000854
:10001000350500083505000835050008000000001A
:10002000000000000000000000000000350500088E
:1000300035050008000000003505000835050008FA
:1000400035050008350500083505000835050008A8
:100050003505000835050008350500083505000898
:100060003505000835050008350500083505000888
:100070003505000835050008350500083505000878
:100080003505000835050008350500083505000868
:100090003505000835050008350500083505000858
:1000A00035050008CD0400083505000835050008B1
:1000B0003505000835050008350500083505000838
:1000C0003505000835050008350500083505000828
:1000D0003505000835050008350500083505000818
:1000E0003505000835050008350500083505000808
:1000F00035050008350500083505000835050008F8
:1001000035050008350500083505000835050008E7
:1001100035050008350500083505000835050008D7
:1001200035050008350500083505000835050008C7
:1001300035050008350500083505000835050008B7
:1001400035050008350500083505000835050008A7
:100150003505000835050008350500083505000897
:100160003505000835050008350500083505000887
:1001700035050008350500083505000800000000B9
:100180003505000835050008350500083505000867
:100190003505000835050008350500083505000857
:0C01A0003505000835050008350500088D
:1001AC0010B5054C237833B9044B13B10448AFF3A5
:1001BC0000800123237010BD00000020000000000F
:1001CC008005000808B5034B1BB103490348AFF386
:1001DC00008008BD0000000004000020800500081D
:1001EC0008B500F05BF800F0D9F800F01FF900F04A
:1001FC003BF9274A136B43F002031363254B1A6830
:10020C0042F001021A609A6942F001029A6104E01C
:10021C00214A936943F47003936100F043F9A0F20F
:10022C0033339BB240F6FD129342F1D81A4A9369CC
:10023C0043F01003936140F26563984216D99369B9
:10024C0043F02003936140F69813984214D9124A54
:10025C00936943F04003936140F6CB43984211D924
:10026C000D4A936943F080039361D6E70A4A936978
:10027C0043F400139361E6E7074A936943F4800360
:10028C009361E9E7044A936943F400039361C4E77B
:10029C000038024000040240000C02403D4A136842
:1002AC0023F0F80343F08003136000239360394B71
:1002BC009B6813F00C0FFAD1364A136823F0807345
:1002CC001360344B1B6813F0007FFAD1314A13686A
:1002DC0023F4102313602F4B1B6813F4003FFAD147
:1002EC002C4B1A6822F480221A601A6842F480326D
:1002FC001A60284B1B6813F4003FFAD0254B1A6880
:10030C0042F400221A6000225A605A6842F48002B9
:10031C005A605A6822F03F0242F008025A605A684A
:10032C006FF38E1242F4B4425A605A6822F440328F
:10033C005A6019490A6822F00F0242F005020A605D
:10034C001A6842F080721A60124B1B6813F0007F1F
:10035C00FAD0104B9A6822F0030242F002029A6023
:10036C009A6822F0F0029A609A6822F4604242F491
:10037C0000429A609A6822F4E05242F4A0529A60C9
:10038C009A6822F060529A609A6822F040429A6011
:10039C00704700BF00380240003C0240204B5A6CB2
:1003AC0042F001025A641A6B42F001021A63A3F57F
:1003BC009C335E229A6240F2E732DA624FF4FA72B0
:1003CC005A6301225A6117490A6822F4403242F4F6
:1003DC0000320A604A6A22F00F0242F001024A62BD
:1003EC009A6922F0700242F060029A619A6942F0B6
:1003FC0008029A611A6A42F001021A625A6C42F4BB
:10040C0000425A641A6842F080021A601A6842F07C
:10041C0001021A60044B4FF000721A60704700BF63
:10042C00003802400000024000E100E00B4B1A6B68
:10043C0042F008021A630A4A116841F4AA41116099
:10044C00916941F4700191611A6B42F001021A63D7
:10045C00044A136843F003031360704700380240EA
:10046C00000C0240000002400C4A536C43F48073B1
:10047C0053640B4B002199609A6842F001029A6018
:10048C009A6842F002029A6059631A6942F00702B4
:10049C001A619A6842F080429A60704700380240B4
:1004AC000020014000E000BF044B1B6813F0020F5A
:1004BC00F9D0024BD86C80B2704700BF00200140CD
:1004CC00054B1B6913F0010F04D0034A136923F089
:1004DC0001031361704700BF00000140DFF830D00A
:1004EC000C480D490D4A002302E0D458C450043383
:1004FC00C4188C42F9D30A4A0A4C002301E0136059
:10050C000432A242FBD300F011F8FFF769FE7047EA
:10051C00000003200000002000000020A0050008BF
:10052C00000000201C000020FEE7000070B50D4DFF
:10053C000D4C641BA4100026A64209D10B4D0C4C8B
:10054C0000F018F8641BA4100026A64205D170BD5B
:10055C0055F8043B98470136EEE755F8043B9847AD
:10056C000136F2E798050008980500089805000880
:10057C009C050008F8B500BFF8BC08BC9E46704747
:0C058C00F8B500BFF8BC08BC9E467047E4
:04059800D101000885
:04059C00AD010008A5
:04000005080004E902
:00000001FF
